{
  "_format": "hh-sol-artifact-1",
  "contractName": "SimpleEpochStaking",
  "sourceName": "contracts/Staking.sol",
  "abi": [
    {
      "inputs": [
        {
          "internalType": "address",
          "name": "_token",
          "type": "address"
        },
        {
          "internalType": "uint256",
          "name": "_initialRewardPerSecond",
          "type": "uint256"
        }
      ],
      "stateMutability": "nonpayable",
      "type": "constructor"
    },
    {
      "inputs": [
        {
          "internalType": "address",
          "name": "token",
          "type": "address"
        }
      ],
      "name": "SafeERC20FailedOperation",
      "type": "error"
    },
    {
      "anonymous": false,
      "inputs": [
        {
          "indexed": true,
          "internalType": "address",
          "name": "user",
          "type": "address"
        },
        {
          "indexed": false,
          "internalType": "uint256",
          "name": "amount",
          "type": "uint256"
        }
      ],
      "name": "Claimed",
      "type": "event"
    },
    {
      "anonymous": false,
      "inputs": [
        {
          "indexed": true,
          "internalType": "uint256",
          "name": "newEpoch",
          "type": "uint256"
        },
        {
          "indexed": false,
          "internalType": "uint256",
          "name": "newRewardPerSecond",
          "type": "uint256"
        }
      ],
      "name": "EpochAdvanced",
      "type": "event"
    },
    {
      "anonymous": false,
      "inputs": [
        {
          "indexed": true,
          "internalType": "address",
          "name": "user",
          "type": "address"
        },
        {
          "indexed": false,
          "internalType": "uint256",
          "name": "amount",
          "type": "uint256"
        }
      ],
      "name": "Staked",
      "type": "event"
    },
    {
      "anonymous": false,
      "inputs": [
        {
          "indexed": true,
          "internalType": "address",
          "name": "user",
          "type": "address"
        },
        {
          "indexed": false,
          "internalType": "uint256",
          "name": "amount",
          "type": "uint256"
        }
      ],
      "name": "Unstaked",
      "type": "event"
    },
    {
      "inputs": [],
      "name": "BPS_DENOM",
      "outputs": [
        {
          "internalType": "uint256",
          "name": "",
          "type": "uint256"
        }
      ],
      "stateMutability": "view",
      "type": "function"
    },
    {
      "inputs": [],
      "name": "DECAY_BPS",
      "outputs": [
        {
          "internalType": "uint256",
          "name": "",
          "type": "uint256"
        }
      ],
      "stateMutability": "view",
      "type": "function"
    },
    {
      "inputs": [],
      "name": "EPOCH_DURATION",
      "outputs": [
        {
          "internalType": "uint256",
          "name": "",
          "type": "uint256"
        }
      ],
      "stateMutability": "view",
      "type": "function"
    },
    {
      "inputs": [
        {
          "internalType": "address",
          "name": "",
          "type": "address"
        }
      ],
      "name": "accruedReward",
      "outputs": [
        {
          "internalType": "uint256",
          "name": "",
          "type": "uint256"
        }
      ],
      "stateMutability": "view",
      "type": "function"
    },
    {
      "inputs": [],
      "name": "claim",
      "outputs": [],
      "stateMutability": "nonpayable",
      "type": "function"
    },
    {
      "inputs": [],
      "name": "currentEpoch",
      "outputs": [
        {
          "internalType": "uint256",
          "name": "",
          "type": "uint256"
        }
      ],
      "stateMutability": "view",
      "type": "function"
    },
    {
      "inputs": [],
      "name": "exit",
      "outputs": [],
      "stateMutability": "nonpayable",
      "type": "function"
    },
    {
      "inputs": [],
      "name": "lastEpochUpdate",
      "outputs": [
        {
          "internalType": "uint256",
          "name": "",
          "type": "uint256"
        }
      ],
      "stateMutability": "view",
      "type": "function"
    },
    {
      "inputs": [
        {
          "internalType": "address",
          "name": "",
          "type": "address"
        }
      ],
      "name": "lastUpdate",
      "outputs": [
        {
          "internalType": "uint256",
          "name": "",
          "type": "uint256"
        }
      ],
      "stateMutability": "view",
      "type": "function"
    },
    {
      "inputs": [
        {
          "internalType": "address",
          "name": "user",
          "type": "address"
        }
      ],
      "name": "pendingReward",
      "outputs": [
        {
          "internalType": "uint256",
          "name": "",
          "type": "uint256"
        }
      ],
      "stateMutability": "view",
      "type": "function"
    },
    {
      "inputs": [],
      "name": "rewardPerSecond",
      "outputs": [
        {
          "internalType": "uint256",
          "name": "",
          "type": "uint256"
        }
      ],
      "stateMutability": "view",
      "type": "function"
    },
    {
      "inputs": [
        {
          "internalType": "uint256",
          "name": "amount",
          "type": "uint256"
        }
      ],
      "name": "stake",
      "outputs": [],
      "stateMutability": "nonpayable",
      "type": "function"
    },
    {
      "inputs": [
        {
          "internalType": "address",
          "name": "",
          "type": "address"
        }
      ],
      "name": "staked",
      "outputs": [
        {
          "internalType": "uint256",
          "name": "",
          "type": "uint256"
        }
      ],
      "stateMutability": "view",
      "type": "function"
    },
    {
      "inputs": [],
      "name": "stakingToken",
      "outputs": [
        {
          "internalType": "contract IERC20",
          "name": "",
          "type": "address"
        }
      ],
      "stateMutability": "view",
      "type": "function"
    },
    {
      "inputs": [
        {
          "internalType": "uint256",
          "name": "amount",
          "type": "uint256"
        }
      ],
      "name": "unstake",
      "outputs": [],
      "stateMutability": "nonpayable",
      "type": "function"
    }
  ],
  "bytecode": "0x60a06040523480156200001157600080fd5b50604051620019a0380380620019a0833981810160405281019062000037919062000198565b600073ffffffffffffffffffffffffffffffffffffffff168273ffffffffffffffffffffffffffffffffffffffff1603620000a9576040517f08c379a0000000000000000000000000000000000000000000000000000000008152600401620000a09062000240565b60405180910390fd5b8173ffffffffffffffffffffffffffffffffffffffff1660808173ffffffffffffffffffffffffffffffffffffffff16815250508060008190555042600281905550505062000262565b600080fd5b600073ffffffffffffffffffffffffffffffffffffffff82169050919050565b60006200012582620000f8565b9050919050565b620001378162000118565b81146200014357600080fd5b50565b60008151905062000157816200012c565b92915050565b6000819050919050565b62000172816200015d565b81146200017e57600080fd5b50565b600081519050620001928162000167565b92915050565b60008060408385031215620001b257620001b1620000f3565b5b6000620001c28582860162000146565b9250506020620001d58582860162000181565b9150509250929050565b600082825260208201905092915050565b7f5a45524f5f544f4b454e00000000000000000000000000000000000000000000600082015250565b600062000228600a83620001df565b91506200023582620001f0565b602082019050919050565b600060208201905081810360008301526200025b8162000219565b9050919050565b6080516116ff620002a1600039600081816104230152818161059c015281816106390152818161073d015281816109ff0152610a5401526116ff6000f3fe608060405234801561001057600080fd5b50600436106100f55760003560e01c80638d5d7a3611610097578063a70b9f0c11610066578063a70b9f0c14610250578063cb03fb1e1461026e578063e9fad8ee1461029e578063f40f0f52146102a8576100f5565b80638d5d7a36146101c85780638f10369a146101e657806398807d8414610204578063a694fc3a14610234576100f5565b80636637e38c116100d35780636637e38c1461015057806372f702f31461016e578063766718081461018c5780638676950f146101aa576100f5565b8063189212f0146100fa5780632e17de781461012a5780634e71d92d14610146575b600080fd5b610114600480360381019061010f91906111c9565b6102d8565b604051610121919061120f565b60405180910390f35b610144600480360381019061013f9190611256565b6102f0565b005b61014e6104b8565b005b610158610631565b604051610165919061120f565b60405180910390f35b610176610637565b60405161018391906112e2565b60405180910390f35b61019461065b565b6040516101a1919061120f565b60405180910390f35b6101b2610661565b6040516101bf919061120f565b60405180910390f35b6101d0610667565b6040516101dd919061120f565b60405180910390f35b6101ee61066d565b6040516101fb919061120f565b60405180910390f35b61021e600480360381019061021991906111c9565b610673565b60405161022b919061120f565b60405180910390f35b61024e60048036038101906102499190611256565b61068b565b005b61025861085f565b604051610265919061120f565b60405180910390f35b610288600480360381019061028391906111c9565b610866565b604051610295919061120f565b60405180910390f35b6102a661087e565b005b6102c260048036038101906102bd91906111c9565b610b43565b6040516102cf919061120f565b60405180910390f35b60056020528060005260406000206000915090505481565b60008111610333576040517f08c379a000000000000000000000000000000000000000000000000000000000815260040161032a9061135a565b60405180910390fd5b80600360003373ffffffffffffffffffffffffffffffffffffffff1673ffffffffffffffffffffffffffffffffffffffff1681526020019081526020016000205410156103b5576040517f08c379a00000000000000000000000000000000000000000000000000000000081526004016103ac906113c6565b60405180910390fd5b6103bd610cb1565b6103c633610daa565b80600360003373ffffffffffffffffffffffffffffffffffffffff1673ffffffffffffffffffffffffffffffffffffffff16815260200190815260200160002060008282546104159190611415565b9250508190555061046733827f000000000000000000000000000000000000000000000000000000000000000073ffffffffffffffffffffffffffffffffffffffff16610fc39092919063ffffffff16565b3373ffffffffffffffffffffffffffffffffffffffff167f0f5bb82176feb1b5e747e28471aa92156a04d9f3ab9f45f28e2d704232b93f75826040516104ad919061120f565b60405180910390a250565b6104c0610cb1565b6104c933610daa565b6000600560003373ffffffffffffffffffffffffffffffffffffffff1673ffffffffffffffffffffffffffffffffffffffff16815260200190815260200160002054905060008111610550576040517f08c379a000000000000000000000000000000000000000000000000000000000815260040161054790611495565b60405180910390fd5b6000600560003373ffffffffffffffffffffffffffffffffffffffff1673ffffffffffffffffffffffffffffffffffffffff168152602001908152602001600020819055506105e033827f000000000000000000000000000000000000000000000000000000000000000073ffffffffffffffffffffffffffffffffffffffff16610fc39092919063ffffffff16565b3373ffffffffffffffffffffffffffffffffffffffff167fd8138f8a3f377c5259ca548e70e4c2de94f129f5a11036a15b69513cba2b426a82604051610626919061120f565b60405180910390a250565b61271081565b7f000000000000000000000000000000000000000000000000000000000000000081565b60015481565b60025481565b61138881565b60005481565b60036020528060005260406000206000915090505481565b600081116106ce576040517f08c379a00000000000000000000000000000000000000000000000000000000081526004016106c59061135a565b60405180910390fd5b6106d6610cb1565b6106df33610daa565b80600360003373ffffffffffffffffffffffffffffffffffffffff1673ffffffffffffffffffffffffffffffffffffffff168152602001908152602001600020600082825461072e91906114b5565b925050819055506107823330837f000000000000000000000000000000000000000000000000000000000000000073ffffffffffffffffffffffffffffffffffffffff16611042909392919063ffffffff16565b6000600460003373ffffffffffffffffffffffffffffffffffffffff1673ffffffffffffffffffffffffffffffffffffffff168152602001908152602001600020540361080e5742600460003373ffffffffffffffffffffffffffffffffffffffff1673ffffffffffffffffffffffffffffffffffffffff168152602001908152602001600020819055505b3373ffffffffffffffffffffffffffffffffffffffff167f9e71bc8eea02a63969f509818f2dafb9254532904319f9dbda79b67bd34a5f3d82604051610854919061120f565b60405180910390a250565b62093a8081565b60046020528060005260406000206000915090505481565b610886610cb1565b61088f33610daa565b6000600360003373ffffffffffffffffffffffffffffffffffffffff1673ffffffffffffffffffffffffffffffffffffffff1681526020019081526020016000205490506000600560003373ffffffffffffffffffffffffffffffffffffffff1673ffffffffffffffffffffffffffffffffffffffff16815260200190815260200160002054905060008211806109265750600081115b610965576040517f08c379a000000000000000000000000000000000000000000000000000000000815260040161095c90611535565b60405180910390fd5b6000600360003373ffffffffffffffffffffffffffffffffffffffff1673ffffffffffffffffffffffffffffffffffffffff168152602001908152602001600020819055506000600560003373ffffffffffffffffffffffffffffffffffffffff1673ffffffffffffffffffffffffffffffffffffffff168152602001908152602001600020819055506000821115610a4457610a4333837f000000000000000000000000000000000000000000000000000000000000000073ffffffffffffffffffffffffffffffffffffffff16610fc39092919063ffffffff16565b5b6000811115610a9957610a9833827f000000000000000000000000000000000000000000000000000000000000000073ffffffffffffffffffffffffffffffffffffffff16610fc39092919063ffffffff16565b5b3373ffffffffffffffffffffffffffffffffffffffff167f0f5bb82176feb1b5e747e28471aa92156a04d9f3ab9f45f28e2d704232b93f7583604051610adf919061120f565b60405180910390a26000811115610b3f573373ffffffffffffffffffffffffffffffffffffffff167fd8138f8a3f377c5259ca548e70e4c2de94f129f5a11036a15b69513cba2b426a82604051610b36919061120f565b60405180910390a25b5050565b600080600460008473ffffffffffffffffffffffffffffffffffffffff1673ffffffffffffffffffffffffffffffffffffffff1681526020019081526020016000205490506000808214158015610bd957506000600360008673ffffffffffffffffffffffffffffffffffffffff1673ffffffffffffffffffffffffffffffffffffffff16815260200190815260200160002054115b15610c5d5760008242610bec9190611415565b9050670de0b6b3a764000081600054600360008973ffffffffffffffffffffffffffffffffffffffff1673ffffffffffffffffffffffffffffffffffffffff16815260200190815260200160002054610c459190611555565b610c4f9190611555565b610c5991906115c6565b9150505b80600560008673ffffffffffffffffffffffffffffffffffffffff1673ffffffffffffffffffffffffffffffffffffffff16815260200190815260200160002054610ca891906114b5565b92505050919050565b62093a80600254610cc291906114b5565b4210610da857600062093a8060025442610cdc9190611415565b610ce691906115c6565b905062093a8081610cf79190611555565b60026000828254610d0891906114b5565b9250508190555060005b81811015610d6957612710611388600054610d2d9190611555565b610d3791906115c6565b6000819055506001806000828254610d4f91906114b5565b925050819055508080610d61906115f7565b915050610d12565b506001547facfa06cebbab8226f9a388bff9f5fcf4569298028d939f4765958dc57dbb330b600054604051610d9e919061120f565b60405180910390a2505b565b6000600460008373ffffffffffffffffffffffffffffffffffffffff1673ffffffffffffffffffffffffffffffffffffffff16815260200190815260200160002054905060008103610e405742600460008473ffffffffffffffffffffffffffffffffffffffff1673ffffffffffffffffffffffffffffffffffffffff1681526020019081526020016000208190555050610fc0565b6000600360008473ffffffffffffffffffffffffffffffffffffffff1673ffffffffffffffffffffffffffffffffffffffff16815260200190815260200160002054905060008103610ed75742600460008573ffffffffffffffffffffffffffffffffffffffff1673ffffffffffffffffffffffffffffffffffffffff168152602001908152602001600020819055505050610fc0565b60008242610ee59190611415565b90506000811115610fbc576000670de0b6b3a76400008260005485610f0a9190611555565b610f149190611555565b610f1e91906115c6565b905080600560008773ffffffffffffffffffffffffffffffffffffffff1673ffffffffffffffffffffffffffffffffffffffff1681526020019081526020016000206000828254610f6f91906114b5565b9250508190555042600460008773ffffffffffffffffffffffffffffffffffffffff1673ffffffffffffffffffffffffffffffffffffffff16815260200190815260200160002081905550505b5050505b50565b61103d838473ffffffffffffffffffffffffffffffffffffffff1663a9059cbb8585604051602401610ff692919061164e565b604051602081830303815290604052915060e01b6020820180517bffffffffffffffffffffffffffffffffffffffffffffffffffffffff83818316178352505050506110c4565b505050565b6110be848573ffffffffffffffffffffffffffffffffffffffff166323b872dd86868660405160240161107793929190611677565b604051602081830303815290604052915060e01b6020820180517bffffffffffffffffffffffffffffffffffffffffffffffffffffffff83818316178352505050506110c4565b50505050565b600080602060008451602086016000885af1806110e7576040513d6000823e3d81fd5b3d92506000519150506000821461110257600181141561111e565b60008473ffffffffffffffffffffffffffffffffffffffff163b145b1561116057836040517f5274afe700000000000000000000000000000000000000000000000000000000815260040161115791906116ae565b60405180910390fd5b50505050565b600080fd5b600073ffffffffffffffffffffffffffffffffffffffff82169050919050565b60006111968261116b565b9050919050565b6111a68161118b565b81146111b157600080fd5b50565b6000813590506111c38161119d565b92915050565b6000602082840312156111df576111de611166565b5b60006111ed848285016111b4565b91505092915050565b6000819050919050565b611209816111f6565b82525050565b60006020820190506112246000830184611200565b92915050565b611233816111f6565b811461123e57600080fd5b50565b6000813590506112508161122a565b92915050565b60006020828403121561126c5761126b611166565b5b600061127a84828501611241565b91505092915050565b6000819050919050565b60006112a86112a361129e8461116b565b611283565b61116b565b9050919050565b60006112ba8261128d565b9050919050565b60006112cc826112af565b9050919050565b6112dc816112c1565b82525050565b60006020820190506112f760008301846112d3565b92915050565b600082825260208201905092915050565b7f5a45524f5f414d4f554e54000000000000000000000000000000000000000000600082015250565b6000611344600b836112fd565b915061134f8261130e565b602082019050919050565b6000602082019050818103600083015261137381611337565b9050919050565b7f4e4f545f454e4f5547485f5354414b4500000000000000000000000000000000600082015250565b60006113b06010836112fd565b91506113bb8261137a565b602082019050919050565b600060208201905081810360008301526113df816113a3565b9050919050565b7f4e487b7100000000000000000000000000000000000000000000000000000000600052601160045260246000fd5b6000611420826111f6565b915061142b836111f6565b9250828203905081811115611443576114426113e6565b5b92915050565b7f4e4f5f5245574152440000000000000000000000000000000000000000000000600082015250565b600061147f6009836112fd565b915061148a82611449565b602082019050919050565b600060208201905081810360008301526114ae81611472565b9050919050565b60006114c0826111f6565b91506114cb836111f6565b92508282019050808211156114e3576114e26113e6565b5b92915050565b7f4e4f5448494e475f544f5f455849540000000000000000000000000000000000600082015250565b600061151f600f836112fd565b915061152a826114e9565b602082019050919050565b6000602082019050818103600083015261154e81611512565b9050919050565b6000611560826111f6565b915061156b836111f6565b9250828202611579816111f6565b915082820484148315176115905761158f6113e6565b5b5092915050565b7f4e487b7100000000000000000000000000000000000000000000000000000000600052601260045260246000fd5b60006115d1826111f6565b91506115dc836111f6565b9250826115ec576115eb611597565b5b828204905092915050565b6000611602826111f6565b91507fffffffffffffffffffffffffffffffffffffffffffffffffffffffffffffffff8203611634576116336113e6565b5b600182019050919050565b6116488161118b565b82525050565b6000604082019050611663600083018561163f565b6116706020830184611200565b9392505050565b600060608201905061168c600083018661163f565b611699602083018561163f565b6116a66040830184611200565b949350505050565b60006020820190506116c3600083018461163f565b9291505056fea2646970667358221220dfa170301380a8adc9a9d7fe10ed784746691d9ee6bee403fe03cc8a7a9aaf5764736f6c63430008140033",
  "linkReferences": {},
  "deployedLinkReferences": {}
}